{
  "_format": "hh-sol-artifact-1",
  "contractName": "Pikachu",
  "sourceName": "contracts/tof.sol",
  "abi": [
    {
      "inputs": [],
      "stateMutability": "nonpayable",
      "type": "constructor"
    },
    {
      "anonymous": false,
      "inputs": [
        {
          "indexed": true,
          "internalType": "address",
          "name": "owner",
          "type": "address"
        },
        {
          "indexed": true,
          "internalType": "address",
          "name": "approved",
          "type": "address"
        },
        {
          "indexed": true,
          "internalType": "uint256",
          "name": "tokenId",
          "type": "uint256"
        }
      ],
      "name": "Approval",
      "type": "event"
    },
    {
      "anonymous": false,
      "inputs": [
        {
          "indexed": true,
          "internalType": "address",
          "name": "owner",
          "type": "address"
        },
        {
          "indexed": true,
          "internalType": "address",
          "name": "operator",
          "type": "address"
        },
        {
          "indexed": false,
          "internalType": "bool",
          "name": "approved",
          "type": "bool"
        }
      ],
      "name": "ApprovalForAll",
      "type": "event"
    },
    {
      "anonymous": false,
      "inputs": [
        {
          "indexed": true,
          "internalType": "address",
          "name": "previousOwner",
          "type": "address"
        },
        {
          "indexed": true,
          "internalType": "address",
          "name": "newOwner",
          "type": "address"
        }
      ],
      "name": "OwnershipTransferred",
      "type": "event"
    },
    {
      "anonymous": false,
      "inputs": [
        {
          "indexed": true,
          "internalType": "address",
          "name": "from",
          "type": "address"
        },
        {
          "indexed": true,
          "internalType": "address",
          "name": "to",
          "type": "address"
        },
        {
          "indexed": true,
          "internalType": "uint256",
          "name": "tokenId",
          "type": "uint256"
        }
      ],
      "name": "Transfer",
      "type": "event"
    },
    {
      "inputs": [
        {
          "internalType": "address",
          "name": "to",
          "type": "address"
        },
        {
          "internalType": "uint256",
          "name": "tokenId",
          "type": "uint256"
        }
      ],
      "name": "approve",
      "outputs": [],
      "stateMutability": "nonpayable",
      "type": "function"
    },
    {
      "inputs": [
        {
          "internalType": "address",
          "name": "owner",
          "type": "address"
        }
      ],
      "name": "balanceOf",
      "outputs": [
        {
          "internalType": "uint256",
          "name": "",
          "type": "uint256"
        }
      ],
      "stateMutability": "view",
      "type": "function"
    },
    {
      "inputs": [
        {
          "internalType": "uint256",
          "name": "tokenId",
          "type": "uint256"
        }
      ],
      "name": "burn",
      "outputs": [],
      "stateMutability": "nonpayable",
      "type": "function"
    },
    {
      "inputs": [
        {
          "internalType": "uint256",
          "name": "tokenId",
          "type": "uint256"
        }
      ],
      "name": "getApproved",
      "outputs": [
        {
          "internalType": "address",
          "name": "",
          "type": "address"
        }
      ],
      "stateMutability": "view",
      "type": "function"
    },
    {
      "inputs": [
        {
          "internalType": "address",
          "name": "owner",
          "type": "address"
        },
        {
          "internalType": "address",
          "name": "operator",
          "type": "address"
        }
      ],
      "name": "isApprovedForAll",
      "outputs": [
        {
          "internalType": "bool",
          "name": "",
          "type": "bool"
        }
      ],
      "stateMutability": "view",
      "type": "function"
    },
    {
      "inputs": [],
      "name": "name",
      "outputs": [
        {
          "internalType": "string",
          "name": "",
          "type": "string"
        }
      ],
      "stateMutability": "view",
      "type": "function"
    },
    {
      "inputs": [],
      "name": "owner",
      "outputs": [
        {
          "internalType": "address",
          "name": "",
          "type": "address"
        }
      ],
      "stateMutability": "view",
      "type": "function"
    },
    {
      "inputs": [
        {
          "internalType": "uint256",
          "name": "tokenId",
          "type": "uint256"
        }
      ],
      "name": "ownerOf",
      "outputs": [
        {
          "internalType": "address",
          "name": "",
          "type": "address"
        }
      ],
      "stateMutability": "view",
      "type": "function"
    },
    {
      "inputs": [],
      "name": "renounceOwnership",
      "outputs": [],
      "stateMutability": "nonpayable",
      "type": "function"
    },
    {
      "inputs": [
        {
          "internalType": "address",
          "name": "to",
          "type": "address"
        }
      ],
      "name": "safeMint",
      "outputs": [],
      "stateMutability": "nonpayable",
      "type": "function"
    },
    {
      "inputs": [
        {
          "internalType": "address",
          "name": "from",
          "type": "address"
        },
        {
          "internalType": "address",
          "name": "to",
          "type": "address"
        },
        {
          "internalType": "uint256",
          "name": "tokenId",
          "type": "uint256"
        }
      ],
      "name": "safeTransferFrom",
      "outputs": [],
      "stateMutability": "nonpayable",
      "type": "function"
    },
    {
      "inputs": [
        {
          "internalType": "address",
          "name": "from",
          "type": "address"
        },
        {
          "internalType": "address",
          "name": "to",
          "type": "address"
        },
        {
          "internalType": "uint256",
          "name": "tokenId",
          "type": "uint256"
        },
        {
          "internalType": "bytes",
          "name": "_data",
          "type": "bytes"
        }
      ],
      "name": "safeTransferFrom",
      "outputs": [],
      "stateMutability": "nonpayable",
      "type": "function"
    },
    {
      "inputs": [
        {
          "internalType": "address",
          "name": "operator",
          "type": "address"
        },
        {
          "internalType": "bool",
          "name": "approved",
          "type": "bool"
        }
      ],
      "name": "setApprovalForAll",
      "outputs": [],
      "stateMutability": "nonpayable",
      "type": "function"
    },
    {
      "inputs": [
        {
          "internalType": "bytes4",
          "name": "interfaceId",
          "type": "bytes4"
        }
      ],
      "name": "supportsInterface",
      "outputs": [
        {
          "internalType": "bool",
          "name": "",
          "type": "bool"
        }
      ],
      "stateMutability": "view",
      "type": "function"
    },
    {
      "inputs": [],
      "name": "symbol",
      "outputs": [
        {
          "internalType": "string",
          "name": "",
          "type": "string"
        }
      ],
      "stateMutability": "view",
      "type": "function"
    },
    {
      "inputs": [
        {
          "internalType": "uint256",
          "name": "tokenId",
          "type": "uint256"
        }
      ],
      "name": "tokenURI",
      "outputs": [
        {
          "internalType": "string",
          "name": "",
          "type": "string"
        }
      ],
      "stateMutability": "view",
      "type": "function"
    },
    {
      "inputs": [
        {
          "internalType": "address",
          "name": "from",
          "type": "address"
        },
        {
          "internalType": "address",
          "name": "to",
          "type": "address"
        },
        {
          "internalType": "uint256",
          "name": "tokenId",
          "type": "uint256"
        }
      ],
      "name": "transferFrom",
      "outputs": [],
      "stateMutability": "nonpayable",
      "type": "function"
    },
    {
      "inputs": [
        {
          "internalType": "address",
          "name": "newOwner",
          "type": "address"
        }
      ],
      "name": "transferOwnership",
      "outputs": [],
      "stateMutability": "nonpayable",
      "type": "function"
    }
  ],
  "bytecode": "0x60806040523480156200001157600080fd5b506040518060400160405280600781526020017f50696b61636875000000000000000000000000000000000000000000000000008152506040518060400160405280600281526020017f504b000000000000000000000000000000000000000000000000000000000000815250816000908051906020019062000096929190620001a6565b508060019080519060200190620000af929190620001a6565b505050620000d2620000c6620000d860201b60201c565b620000e060201b60201c565b620002bb565b600033905090565b6000600660009054906101000a900473ffffffffffffffffffffffffffffffffffffffff16905081600660006101000a81548173ffffffffffffffffffffffffffffffffffffffff021916908373ffffffffffffffffffffffffffffffffffffffff1602179055508173ffffffffffffffffffffffffffffffffffffffff168173ffffffffffffffffffffffffffffffffffffffff167f8be0079c531659141344cd1fd0a4f28419497f9722a3daafe3b4186f6b6457e060405160405180910390a35050565b828054620001b49062000256565b90600052602060002090601f016020900481019282620001d8576000855562000224565b82601f10620001f357805160ff191683800117855562000224565b8280016001018555821562000224579182015b828111156200022357825182559160200191906001019062000206565b5b50905062000233919062000237565b5090565b5b808211156200025257600081600090555060010162000238565b5090565b600060028204905060018216806200026f57607f821691505b602082108114156200028657620002856200028c565b5b50919050565b7f4e487b7100000000000000000000000000000000000000000000000000000000600052602260045260246000fd5b612db680620002cb6000396000f3fe608060405234801561001057600080fd5b50600436106101165760003560e01c806370a08231116100a2578063a22cb46511610071578063a22cb465146102cb578063b88d4fde146102e7578063c87b56dd14610303578063e985e9c514610333578063f2fde38b1461036357610116565b806370a0823114610255578063715018a6146102855780638da5cb5b1461028f57806395d89b41146102ad57610116565b806323b872dd116100e957806323b872dd146101b557806340d097c3146101d157806342842e0e146101ed57806342966c68146102095780636352211e1461022557610116565b806301ffc9a71461011b57806306fdde031461014b578063081812fc14610169578063095ea7b314610199575b600080fd5b61013560048036038101906101309190611e28565b61037f565b6040516101429190612251565b60405180910390f35b610153610461565b604051610160919061226c565b60405180910390f35b610183600480360381019061017e9190611e7a565b6104f3565b60405161019091906121ea565b60405180910390f35b6101b360048036038101906101ae9190611dec565b610578565b005b6101cf60048036038101906101ca9190611ce6565b610690565b005b6101eb60048036038101906101e69190611c81565b6106f0565b005b61020760048036038101906102029190611ce6565b61078c565b005b610223600480360381019061021e9190611e7a565b6107ac565b005b61023f600480360381019061023a9190611e7a565b610808565b60405161024c91906121ea565b60405180910390f35b61026f600480360381019061026a9190611c81565b6108ba565b60405161027c91906124ae565b60405180910390f35b61028d610972565b005b6102976109fa565b6040516102a491906121ea565b60405180910390f35b6102b5610a24565b6040516102c2919061226c565b60405180910390f35b6102e560048036038101906102e09190611db0565b610ab6565b005b61030160048036038101906102fc9190611d35565b610acc565b005b61031d60048036038101906103189190611e7a565b610b2e565b60405161032a919061226c565b60405180910390f35b61034d60048036038101906103489190611caa565b610bd5565b60405161035a9190612251565b60405180910390f35b61037d60048036038101906103789190611c81565b610c69565b005b60007f80ac58cd000000000000000000000000000000000000000000000000000000007bffffffffffffffffffffffffffffffffffffffffffffffffffffffff1916827bffffffffffffffffffffffffffffffffffffffffffffffffffffffff1916148061044a57507f5b5e139f000000000000000000000000000000000000000000000000000000007bffffffffffffffffffffffffffffffffffffffffffffffffffffffff1916827bffffffffffffffffffffffffffffffffffffffffffffffffffffffff1916145b8061045a575061045982610d61565b5b9050919050565b606060008054610470906126d3565b80601f016020809104026020016040519081016040528092919081815260200182805461049c906126d3565b80156104e95780601f106104be576101008083540402835291602001916104e9565b820191906000526020600020905b8154815290600101906020018083116104cc57829003601f168201915b5050505050905090565b60006104fe82610dcb565b61053d576040517f08c379a0000000000000000000000000000000000000000000000000000000008152600401610534906123ce565b60405180910390fd5b6004600083815260200190815260200160002060009054906101000a900473ffffffffffffffffffffffffffffffffffffffff169050919050565b600061058382610808565b90508073ffffffffffffffffffffffffffffffffffffffff168373ffffffffffffffffffffffffffffffffffffffff1614156105f4576040517f08c379a00000000000000000000000000000000000000000000000000000000081526004016105eb9061244e565b60405180910390fd5b8073ffffffffffffffffffffffffffffffffffffffff16610613610e37565b73ffffffffffffffffffffffffffffffffffffffff16148061064257506106418161063c610e37565b610bd5565b5b610681576040517f08c379a00000000000000000000000000000000000000000000000000000000081526004016106789061234e565b60405180910390fd5b61068b8383610e3f565b505050565b6106a161069b610e37565b82610ef8565b6106e0576040517f08c379a00000000000000000000000000000000000000000000000000000000081526004016106d79061246e565b60405180910390fd5b6106eb838383610fd6565b505050565b6106f8610e37565b73ffffffffffffffffffffffffffffffffffffffff166107166109fa565b73ffffffffffffffffffffffffffffffffffffffff161461076c576040517f08c379a0000000000000000000000000000000000000000000000000000000008152600401610763906123ee565b60405180910390fd5b61077f8161077a6007611232565b611240565b610789600761125e565b50565b6107a783838360405180602001604052806000815250610acc565b505050565b6107bd6107b7610e37565b82610ef8565b6107fc576040517f08c379a00000000000000000000000000000000000000000000000000000000081526004016107f39061248e565b60405180910390fd5b61080581611274565b50565b6000806002600084815260200190815260200160002060009054906101000a900473ffffffffffffffffffffffffffffffffffffffff169050600073ffffffffffffffffffffffffffffffffffffffff168173ffffffffffffffffffffffffffffffffffffffff1614156108b1576040517f08c379a00000000000000000000000000000000000000000000000000000000081526004016108a89061238e565b60405180910390fd5b80915050919050565b60008073ffffffffffffffffffffffffffffffffffffffff168273ffffffffffffffffffffffffffffffffffffffff16141561092b576040517f08c379a00000000000000000000000000000000000000000000000000000000081526004016109229061236e565b60405180910390fd5b600360008373ffffffffffffffffffffffffffffffffffffffff1673ffffffffffffffffffffffffffffffffffffffff168152602001908152602001600020549050919050565b61097a610e37565b73ffffffffffffffffffffffffffffffffffffffff166109986109fa565b73ffffffffffffffffffffffffffffffffffffffff16146109ee576040517f08c379a00000000000000000000000000000000000000000000000000000000081526004016109e5906123ee565b60405180910390fd5b6109f86000611385565b565b6000600660009054906101000a900473ffffffffffffffffffffffffffffffffffffffff16905090565b606060018054610a33906126d3565b80601f0160208091040260200160405190810160405280929190818152602001828054610a5f906126d3565b8015610aac5780601f10610a8157610100808354040283529160200191610aac565b820191906000526020600020905b815481529060010190602001808311610a8f57829003601f168201915b5050505050905090565b610ac8610ac1610e37565b838361144b565b5050565b610add610ad7610e37565b83610ef8565b610b1c576040517f08c379a0000000000000000000000000000000000000000000000000000000008152600401610b139061246e565b60405180910390fd5b610b28848484846115b8565b50505050565b6060610b3982610dcb565b610b78576040517f08c379a0000000000000000000000000000000000000000000000000000000008152600401610b6f9061242e565b60405180910390fd5b6000610b82611614565b90506000815111610ba25760405180602001604052806000815250610bcd565b80610bac8461162b565b604051602001610bbd9291906121c6565b6040516020818303038152906040525b915050919050565b6000600560008473ffffffffffffffffffffffffffffffffffffffff1673ffffffffffffffffffffffffffffffffffffffff16815260200190815260200160002060008373ffffffffffffffffffffffffffffffffffffffff1673ffffffffffffffffffffffffffffffffffffffff16815260200190815260200160002060009054906101000a900460ff16905092915050565b610c71610e37565b73ffffffffffffffffffffffffffffffffffffffff16610c8f6109fa565b73ffffffffffffffffffffffffffffffffffffffff1614610ce5576040517f08c379a0000000000000000000000000000000000000000000000000000000008152600401610cdc906123ee565b60405180910390fd5b600073ffffffffffffffffffffffffffffffffffffffff168173ffffffffffffffffffffffffffffffffffffffff161415610d55576040517f08c379a0000000000000000000000000000000000000000000000000000000008152600401610d4c906122ae565b60405180910390fd5b610d5e81611385565b50565b60007f01ffc9a7000000000000000000000000000000000000000000000000000000007bffffffffffffffffffffffffffffffffffffffffffffffffffffffff1916827bffffffffffffffffffffffffffffffffffffffffffffffffffffffff1916149050919050565b60008073ffffffffffffffffffffffffffffffffffffffff166002600084815260200190815260200160002060009054906101000a900473ffffffffffffffffffffffffffffffffffffffff1673ffffffffffffffffffffffffffffffffffffffff1614159050919050565b600033905090565b816004600083815260200190815260200160002060006101000a81548173ffffffffffffffffffffffffffffffffffffffff021916908373ffffffffffffffffffffffffffffffffffffffff160217905550808273ffffffffffffffffffffffffffffffffffffffff16610eb283610808565b73ffffffffffffffffffffffffffffffffffffffff167f8c5be1e5ebec7d5bd14f71427d1e84f3dd0314c0f7b2291e5b200ac8c7c3b92560405160405180910390a45050565b6000610f0382610dcb565b610f42576040517f08c379a0000000000000000000000000000000000000000000000000000000008152600401610f399061232e565b60405180910390fd5b6000610f4d83610808565b90508073ffffffffffffffffffffffffffffffffffffffff168473ffffffffffffffffffffffffffffffffffffffff161480610fbc57508373ffffffffffffffffffffffffffffffffffffffff16610fa4846104f3565b73ffffffffffffffffffffffffffffffffffffffff16145b80610fcd5750610fcc8185610bd5565b5b91505092915050565b8273ffffffffffffffffffffffffffffffffffffffff16610ff682610808565b73ffffffffffffffffffffffffffffffffffffffff161461104c576040517f08c379a00000000000000000000000000000000000000000000000000000000081526004016110439061240e565b60405180910390fd5b600073ffffffffffffffffffffffffffffffffffffffff168273ffffffffffffffffffffffffffffffffffffffff1614156110bc576040517f08c379a00000000000000000000000000000000000000000000000000000000081526004016110b3906122ee565b60405180910390fd5b6110c78383836117d8565b6110d2600082610e3f565b6001600360008573ffffffffffffffffffffffffffffffffffffffff1673ffffffffffffffffffffffffffffffffffffffff168152602001908152602001600020600082825461112291906125e9565b925050819055506001600360008473ffffffffffffffffffffffffffffffffffffffff1673ffffffffffffffffffffffffffffffffffffffff16815260200190815260200160002060008282546111799190612562565b92505081905550816002600083815260200190815260200160002060006101000a81548173ffffffffffffffffffffffffffffffffffffffff021916908373ffffffffffffffffffffffffffffffffffffffff160217905550808273ffffffffffffffffffffffffffffffffffffffff168473ffffffffffffffffffffffffffffffffffffffff167fddf252ad1be2c89b69c2b068fc378daa952ba7f163c4a11628f55a4df523b3ef60405160405180910390a4505050565b600081600001549050919050565b61125a8282604051806020016040528060008152506117dd565b5050565b6001816000016000828254019250508190555050565b600061127f82610808565b905061128d816000846117d8565b611298600083610e3f565b6001600360008373ffffffffffffffffffffffffffffffffffffffff1673ffffffffffffffffffffffffffffffffffffffff16815260200190815260200160002060008282546112e891906125e9565b925050819055506002600083815260200190815260200160002060006101000a81549073ffffffffffffffffffffffffffffffffffffffff021916905581600073ffffffffffffffffffffffffffffffffffffffff168273ffffffffffffffffffffffffffffffffffffffff167fddf252ad1be2c89b69c2b068fc378daa952ba7f163c4a11628f55a4df523b3ef60405160405180910390a45050565b6000600660009054906101000a900473ffffffffffffffffffffffffffffffffffffffff16905081600660006101000a81548173ffffffffffffffffffffffffffffffffffffffff021916908373ffffffffffffffffffffffffffffffffffffffff1602179055508173ffffffffffffffffffffffffffffffffffffffff168173ffffffffffffffffffffffffffffffffffffffff167f8be0079c531659141344cd1fd0a4f28419497f9722a3daafe3b4186f6b6457e060405160405180910390a35050565b8173ffffffffffffffffffffffffffffffffffffffff168373ffffffffffffffffffffffffffffffffffffffff1614156114ba576040517f08c379a00000000000000000000000000000000000000000000000000000000081526004016114b19061230e565b60405180910390fd5b80600560008573ffffffffffffffffffffffffffffffffffffffff1673ffffffffffffffffffffffffffffffffffffffff16815260200190815260200160002060008473ffffffffffffffffffffffffffffffffffffffff1673ffffffffffffffffffffffffffffffffffffffff16815260200190815260200160002060006101000a81548160ff0219169083151502179055508173ffffffffffffffffffffffffffffffffffffffff168373ffffffffffffffffffffffffffffffffffffffff167f17307eab39ab6107e8899845ad3d59bd9653f200f220920489ca2b5937696c31836040516115ab9190612251565b60405180910390a3505050565b6115c3848484610fd6565b6115cf84848484611838565b61160e576040517f08c379a00000000000000000000000000000000000000000000000000000000081526004016116059061228e565b60405180910390fd5b50505050565b606060405180602001604052806000815250905090565b60606000821415611673576040518060400160405280600181526020017f300000000000000000000000000000000000000000000000000000000000000081525090506117d3565b600082905060005b600082146116a557808061168e90612736565b915050600a8261169e91906125b8565b915061167b565b60008167ffffffffffffffff8111156116e7577f4e487b7100000000000000000000000000000000000000000000000000000000600052604160045260246000fd5b6040519080825280601f01601f1916602001820160405280156117195781602001600182028036833780820191505090505b5090505b600085146117cc5760018261173291906125e9565b9150600a85611741919061277f565b603061174d9190612562565b60f81b818381518110611789577f4e487b7100000000000000000000000000000000000000000000000000000000600052603260045260246000fd5b60200101907effffffffffffffffffffffffffffffffffffffffffffffffffffffffffffff1916908160001a905350600a856117c591906125b8565b945061171d565b8093505050505b919050565b505050565b6117e783836119cf565b6117f46000848484611838565b611833576040517f08c379a000000000000000000000000000000000000000000000000000000000815260040161182a9061228e565b60405180910390fd5b505050565b60006118598473ffffffffffffffffffffffffffffffffffffffff16611b9d565b156119c2578373ffffffffffffffffffffffffffffffffffffffff1663150b7a02611882610e37565b8786866040518563ffffffff1660e01b81526004016118a49493929190612205565b602060405180830381600087803b1580156118be57600080fd5b505af19250505080156118ef57506040513d601f19601f820116820180604052508101906118ec9190611e51565b60015b611972573d806000811461191f576040519150601f19603f3d011682016040523d82523d6000602084013e611924565b606091505b5060008151141561196a576040517f08c379a00000000000000000000000000000000000000000000000000000000081526004016119619061228e565b60405180910390fd5b805181602001fd5b63150b7a0260e01b7bffffffffffffffffffffffffffffffffffffffffffffffffffffffff1916817bffffffffffffffffffffffffffffffffffffffffffffffffffffffff1916149150506119c7565b600190505b949350505050565b600073ffffffffffffffffffffffffffffffffffffffff168273ffffffffffffffffffffffffffffffffffffffff161415611a3f576040517f08c379a0000000000000000000000000000000000000000000000000000000008152600401611a36906123ae565b60405180910390fd5b611a4881610dcb565b15611a88576040517f08c379a0000000000000000000000000000000000000000000000000000000008152600401611a7f906122ce565b60405180910390fd5b611a94600083836117d8565b6001600360008473ffffffffffffffffffffffffffffffffffffffff1673ffffffffffffffffffffffffffffffffffffffff1681526020019081526020016000206000828254611ae49190612562565b92505081905550816002600083815260200190815260200160002060006101000a81548173ffffffffffffffffffffffffffffffffffffffff021916908373ffffffffffffffffffffffffffffffffffffffff160217905550808273ffffffffffffffffffffffffffffffffffffffff16600073ffffffffffffffffffffffffffffffffffffffff167fddf252ad1be2c89b69c2b068fc378daa952ba7f163c4a11628f55a4df523b3ef60405160405180910390a45050565b600080823b905060008111915050919050565b6000611bc3611bbe846124ee565b6124c9565b905082815260208101848484011115611bdb57600080fd5b611be6848285612691565b509392505050565b600081359050611bfd81612d24565b92915050565b600081359050611c1281612d3b565b92915050565b600081359050611c2781612d52565b92915050565b600081519050611c3c81612d52565b92915050565b600082601f830112611c5357600080fd5b8135611c63848260208601611bb0565b91505092915050565b600081359050611c7b81612d69565b92915050565b600060208284031215611c9357600080fd5b6000611ca184828501611bee565b91505092915050565b60008060408385031215611cbd57600080fd5b6000611ccb85828601611bee565b9250506020611cdc85828601611bee565b9150509250929050565b600080600060608486031215611cfb57600080fd5b6000611d0986828701611bee565b9350506020611d1a86828701611bee565b9250506040611d2b86828701611c6c565b9150509250925092565b60008060008060808587031215611d4b57600080fd5b6000611d5987828801611bee565b9450506020611d6a87828801611bee565b9350506040611d7b87828801611c6c565b925050606085013567ffffffffffffffff811115611d9857600080fd5b611da487828801611c42565b91505092959194509250565b60008060408385031215611dc357600080fd5b6000611dd185828601611bee565b9250506020611de285828601611c03565b9150509250929050565b60008060408385031215611dff57600080fd5b6000611e0d85828601611bee565b9250506020611e1e85828601611c6c565b9150509250929050565b600060208284031215611e3a57600080fd5b6000611e4884828501611c18565b91505092915050565b600060208284031215611e6357600080fd5b6000611e7184828501611c2d565b91505092915050565b600060208284031215611e8c57600080fd5b6000611e9a84828501611c6c565b91505092915050565b611eac8161261d565b82525050565b611ebb8161262f565b82525050565b6000611ecc8261251f565b611ed68185612535565b9350611ee68185602086016126a0565b611eef8161286c565b840191505092915050565b6000611f058261252a565b611f0f8185612546565b9350611f1f8185602086016126a0565b611f288161286c565b840191505092915050565b6000611f3e8261252a565b611f488185612557565b9350611f588185602086016126a0565b80840191505092915050565b6000611f71603283612546565b9150611f7c8261287d565b604082019050919050565b6000611f94602683612546565b9150611f9f826128cc565b604082019050919050565b6000611fb7601c83612546565b9150611fc28261291b565b602082019050919050565b6000611fda602483612546565b9150611fe582612944565b604082019050919050565b6000611ffd601983612546565b915061200882612993565b602082019050919050565b6000612020602c83612546565b915061202b826129bc565b604082019050919050565b6000612043603883612546565b915061204e82612a0b565b604082019050919050565b6000612066602a83612546565b915061207182612a5a565b604082019050919050565b6000612089602983612546565b915061209482612aa9565b604082019050919050565b60006120ac602083612546565b91506120b782612af8565b602082019050919050565b60006120cf602c83612546565b91506120da82612b21565b604082019050919050565b60006120f2602083612546565b91506120fd82612b70565b602082019050919050565b6000612115602983612546565b915061212082612b99565b604082019050919050565b6000612138602f83612546565b915061214382612be8565b604082019050919050565b600061215b602183612546565b915061216682612c37565b604082019050919050565b600061217e603183612546565b915061218982612c86565b604082019050919050565b60006121a1603083612546565b91506121ac82612cd5565b604082019050919050565b6121c081612687565b82525050565b60006121d28285611f33565b91506121de8284611f33565b91508190509392505050565b60006020820190506121ff6000830184611ea3565b92915050565b600060808201905061221a6000830187611ea3565b6122276020830186611ea3565b61223460408301856121b7565b81810360608301526122468184611ec1565b905095945050505050565b60006020820190506122666000830184611eb2565b92915050565b600060208201905081810360008301526122868184611efa565b905092915050565b600060208201905081810360008301526122a781611f64565b9050919050565b600060208201905081810360008301526122c781611f87565b9050919050565b600060208201905081810360008301526122e781611faa565b9050919050565b6000602082019050818103600083015261230781611fcd565b9050919050565b6000602082019050818103600083015261232781611ff0565b9050919050565b6000602082019050818103600083015261234781612013565b9050919050565b6000602082019050818103600083015261236781612036565b9050919050565b6000602082019050818103600083015261238781612059565b9050919050565b600060208201905081810360008301526123a78161207c565b9050919050565b600060208201905081810360008301526123c78161209f565b9050919050565b600060208201905081810360008301526123e7816120c2565b9050919050565b60006020820190508181036000830152612407816120e5565b9050919050565b6000602082019050818103600083015261242781612108565b9050919050565b600060208201905081810360008301526124478161212b565b9050919050565b600060208201905081810360008301526124678161214e565b9050919050565b6000602082019050818103600083015261248781612171565b9050919050565b600060208201905081810360008301526124a781612194565b9050919050565b60006020820190506124c360008301846121b7565b92915050565b60006124d36124e4565b90506124df8282612705565b919050565b6000604051905090565b600067ffffffffffffffff8211156125095761250861283d565b5b6125128261286c565b9050602081019050919050565b600081519050919050565b600081519050919050565b600082825260208201905092915050565b600082825260208201905092915050565b600081905092915050565b600061256d82612687565b915061257883612687565b9250827fffffffffffffffffffffffffffffffffffffffffffffffffffffffffffffffff038211156125ad576125ac6127b0565b5b828201905092915050565b60006125c382612687565b91506125ce83612687565b9250826125de576125dd6127df565b5b828204905092915050565b60006125f482612687565b91506125ff83612687565b925082821015612612576126116127b0565b5b828203905092915050565b600061262882612667565b9050919050565b60008115159050919050565b60007fffffffff0000000000000000000000000000000000000000000000000000000082169050919050565b600073ffffffffffffffffffffffffffffffffffffffff82169050919050565b6000819050919050565b82818337600083830152505050565b60005b838110156126be5780820151818401526020810190506126a3565b838111156126cd576000848401525b50505050565b600060028204905060018216806126eb57607f821691505b602082108114156126ff576126fe61280e565b5b50919050565b61270e8261286c565b810181811067ffffffffffffffff8211171561272d5761272c61283d565b5b80604052505050565b600061274182612687565b91507fffffffffffffffffffffffffffffffffffffffffffffffffffffffffffffffff821415612774576127736127b0565b5b600182019050919050565b600061278a82612687565b915061279583612687565b9250826127a5576127a46127df565b5b828206905092915050565b7f4e487b7100000000000000000000000000000000000000000000000000000000600052601160045260246000fd5b7f4e487b7100000000000000000000000000000000000000000000000000000000600052601260045260246000fd5b7f4e487b7100000000000000000000000000000000000000000000000000000000600052602260045260246000fd5b7f4e487b7100000000000000000000000000000000000000000000000000000000600052604160045260246000fd5b6000601f19601f8301169050919050565b7f4552433732313a207472616e7366657220746f206e6f6e20455243373231526560008201527f63656976657220696d706c656d656e7465720000000000000000000000000000602082015250565b7f4f776e61626c653a206e6577206f776e657220697320746865207a65726f206160008201527f6464726573730000000000000000000000000000000000000000000000000000602082015250565b7f4552433732313a20746f6b656e20616c7265616479206d696e74656400000000600082015250565b7f4552433732313a207472616e7366657220746f20746865207a65726f2061646460008201527f7265737300000000000000000000000000000000000000000000000000000000602082015250565b7f4552433732313a20617070726f766520746f2063616c6c657200000000000000600082015250565b7f4552433732313a206f70657261746f7220717565727920666f72206e6f6e657860008201527f697374656e7420746f6b656e0000000000000000000000000000000000000000602082015250565b7f4552433732313a20617070726f76652063616c6c6572206973206e6f74206f7760008201527f6e6572206e6f7220617070726f76656420666f7220616c6c0000000000000000602082015250565b7f4552433732313a2062616c616e636520717565727920666f7220746865207a6560008201527f726f206164647265737300000000000000000000000000000000000000000000602082015250565b7f4552433732313a206f776e657220717565727920666f72206e6f6e657869737460008201527f656e7420746f6b656e0000000000000000000000000000000000000000000000602082015250565b7f4552433732313a206d696e7420746f20746865207a65726f2061646472657373600082015250565b7f4552433732313a20617070726f76656420717565727920666f72206e6f6e657860008201527f697374656e7420746f6b656e0000000000000000000000000000000000000000602082015250565b7f4f776e61626c653a2063616c6c6572206973206e6f7420746865206f776e6572600082015250565b7f4552433732313a207472616e73666572206f6620746f6b656e2074686174206960008201527f73206e6f74206f776e0000000000000000000000000000000000000000000000602082015250565b7f4552433732314d657461646174613a2055524920717565727920666f72206e6f60008201527f6e6578697374656e7420746f6b656e0000000000000000000000000000000000602082015250565b7f4552433732313a20617070726f76616c20746f2063757272656e74206f776e6560008201527f7200000000000000000000000000000000000000000000000000000000000000602082015250565b7f4552433732313a207472616e736665722063616c6c6572206973206e6f74206f60008201527f776e6572206e6f7220617070726f766564000000000000000000000000000000602082015250565b7f4552433732314275726e61626c653a2063616c6c6572206973206e6f74206f7760008201527f6e6572206e6f7220617070726f76656400000000000000000000000000000000602082015250565b612d2d8161261d565b8114612d3857600080fd5b50565b612d448161262f565b8114612d4f57600080fd5b50565b612d5b8161263b565b8114612d6657600080fd5b50565b612d7281612687565b8114612d7d57600080fd5b5056fea2646970667358221220a8387fe601f907150a79fefaa99668fd9e530af231f77a7bc3b34e3473d3256964736f6c63430008040033",
  "linkReferences": {},
  "deployedLinkReferences": {}
}